:020000040800F2
:1000000000500020911C0008ED050008EF050008D5
:10001000F1050008F3050008F505000800000000E0
:10002000000000000000000000000000F7050008CC
:10003000F905000800000000FB050008FD050008A8
:10004000D91C0008D91C0008D91C0008D91C0008BC
:10005000D91C0008D91C0008D91C0008D91C0008AC
:10006000D91C0008D91C0008D91C0008D91C00089C
:10007000D91C0008D91C0008D91C0008D91C00088C
:10008000D91C0008D91C0008D91C0008D91C00087C
:10009000D91C0008D91C0008D91C0008D91C00086C
:1000A000D91C0008D91C0008D91C0008D91C00085C
:1000B000D91C0008D91C0008D91C0008D91C00084C
:1000C000D91C0008D91C0008D91C0008D91C00083C
:1000D000D91C000805060008D91C0008D91C000816
:1000E000D91C0008D91C0008D91C00080000000019
:1000F0000000000000000000000000000000000000
:0C01000000000000000000005FF808F1A3
:10010C0070B50D4E0D4D761BB61006D00024013483
:10011C0055F8043B9847A642F9D1094E094D01F018
:10012C00D7FD761BB61006D00024013455F8043BDD
:10013C009847A642F9D170BD201D0008201D00086B
:10014C00241D0008201D0008F0B4860746D0541E5C
:10015C00002A3CD0CAB2034602E014F1FF3436D375
:10016C0003F8012B9D07F8D1032C29D9CDB245EA10
:10017C0005250F2C45EA054533D9A4F1100636099F
:10018C0003F1200707EB061703F1100242E90455AF
:10019C0042E902551032BA42F8D1721C14F00C0F1D
:1001AC0003EB021204F00F0613D0331F23F00303EA
:1001BC000433134442F8045B9342FBD106F003046E
:1001CC002CB1C9B21C4403F8011B9C42FBD1F0BCFE
:1001DC00704734461346002CF3D1F8E71446034617
:1001EC00C2E71A462646E0E710B5054C237833B92A
:1001FC00044B13B10448AFF300800123237010BDEE
:10020C000C00002000000000DC1C000808B5034BAB
:10021C001BB103490348AFF3008008BD0000000088
:10022C0010000020DC1C00082DE9F04389B00024EC
:10023C0004940594069407942F4B9A6942F010028B
:10024C009A619A6902F010020092009A9A6942F03F
:10025C0020029A619A6902F020020192019A9A692D
:10026C0042F004029A619A6902F004020292029A24
:10027C009A6942F008029A619B6903F008030393A0
:10028C00039BDFF8789022464FF40051484601F06A
:10029C00BDF8DFF86C8022464FF48051404601F0E7
:1002AC00B5F8184F22464FF40071384601F0AEF8FD
:1002BC004FF40053049301260596069402250795E6
:1002CC0004A9484600F090FF4FF480530493059620
:1002DC000694079504A9404600F086FF4FF400737E
:1002EC00049305960694079504A9384600F07CFF04
:1002FC0009B0BDE8F08300BF0010024000100140BF
:10030C00000C01400008014010B5002303E0394AFD
:10031C000021D15401330F2BF9DD374B1A68012121
:10032C000020844604464DE004EB0C0214464FF0CA
:10033C00000C07E00CF1010C304B83FB0413E417A9
:10034C00C4EBA304002CF5D12A4921230B700CF12A
:10035C0001032320C85461460FE0284880FB02307B
:10036C00D317C3EBA0039E4603EB83035800131A69
:10037C003033204A5354724601390029EDDC0CF11C
:10038C00020303E01B4A0021D15401330F2BF9DD8A
:10039C000CF10202322392B21649194801F00FFAFD
:1003AC0003E0184B00221A550134FF2CF9DD10BD67
:1003BC00303B01FB034401EB8103590001E00121B7
:1003CC000846013A002AF2DB0E4B9B5C212BABD08A
:1003DC00232BF4D03A2B0AD00128E9D00228F0D1F3
:1003EC00303B01FB03CC01EB81035900E9E7012110
:1003FC000220E6E7B8010020B400002067666666BC
:10040C0070000020B800002010B504460378212BA2
:10041C0019D0124B1A68237811498B54232B14D002
:10042C000E4A1368013313600023237010BD0C4A6D
:10043C000021D1540133FF2BF9DD084B1B68084A0E
:10044C002121D154E5E70023F5E70A2303220549CE
:10045C00054801F0B4F9FFF757FFE1E7B4000020BD
:10046C00B8000020000000207000002072B6FEE7EB
:10047C0000B58BB000230893099301930293039367
:10048C00049305930693079317484FF0804202603C
:10049C0047224260836044F62062C260036183613C
:1004AC0000F018FAD0B900230893099308A90E4854
:1004BC0000F0D6FAA0B9602301934FF47A7302933B
:1004CC0000220392059201A9074800F061FA48B98D
:1004DC00054800F0CFF80BB05DF804FBFFF7C6FF42
:1004EC00FFF7C4FFFFF7C2FF2800002008B50C4837
:1004FC000C4B03604FF4165343604FF480538360EE
:10050C000023C3604FF4806202610C22426183615C
:10051C00C36101F025F900B908BDFFF7A7FF00BFC3
:10052C00700000200038014000B591B02822002155
:10053C0006A8FFF709FE002301930293039304938B
:10054C000593012206924FF4803307930A920222FC
:10055C000D920E934FF4E0130F9306A800F02AFBB4
:10056C0080B90F23019302210291002303934FF4CE
:10057C0080620492059301A800F05AFD20B911B0D5
:10058C005DF804FBFFF772FFFFF770FF00B583B057
:10059C0000F0C2FAFFF7C8FFFFF746FEFFF768FF4F
:1005AC00FFF7A4FF05E000238DF80430012000F0D4
:1005BC00D7FA00238DF804303223012201A9074811
:1005CC0001F069F90028EED13223012201A9034878
:1005DC0001F0F5F801A8FFF717FFEDE77000002018
:1005EC00FEE7FEE7FEE7FEE7FEE770477047704761
:1005FC0008B500F0A3FA08BD08B5024801F040FAAE
:10060C0008BD00BF7000002082B00E4B9A6942F00A
:10061C0001029A619A6902F001020092009ADA6969
:10062C0042F08052DA61DB6903F080530193019B45
:10063C00054A536823F0E06343F00073536002B043
:10064C00704700BF00100240000001400368B3F186
:10065C00804F00D0704782B003F50433DA6942F062
:10066C000102DA61DB6903F001030193019B02B023
:10067C007047000000B587B00023029303930493E6
:10068C0005930368B3F1804F02D007B05DF804FB0B
:10069C0003F504339A6942F004029A619B6903F0F2
:1006AC0004030193019B01230293022303930593FB
:1006BC0002A9024800F098FDE7E700BF00080140DE
:1006CC0030B587B00023029303930493059302681B
:1006DC001E4B9A4201D007B030BD03F558439A69BE
:1006EC0042F480429A619A6902F480420092009A24
:1006FC009A6942F008029A619B6903F0080301931E
:10070C00019B402302930223039303230593104D73
:10071C0002A9284600F068FD80230293002403946C
:10072C00049402A9284600F05FFD0A4A536843F07E
:10073C00E06343F00403536022460A21252000F0B5
:10074C00EBFE252000F020FFC5E700BF003801407C
:10075C00000C01400000014070B4036A23F0010357
:10076C000362036A4668826922F073020C6844EAE9
:10077C00020523F002028B6813430D4CA04209D0F2
:10078C000B4CA0420DD0466085614A6842630362FF
:10079C0070BC704723F00803CA68134323F00403AA
:1007AC00EEE726F440764A6932438E691643EAE74F
:1007BC00002C014030B4036A23F480730362036A93
:1007CC004568C26922F073020C68224323F400735B
:1007DC008C6843EA04230F4CA04209D00D4CA04274
:1007EC000ED04560C2614A68C263036230BC704778
:1007FC0023F40063CC6843EA042323F48063EDE71D
:10080C0025F440554C6945EA04158C6945EA0415F4
:10081C00E7E700BF002C014030B4036A23F4805397
:10082C000362036A4468C26922F4E6420D6842EA34
:10083C00052223F400538D6843EA0533074DA84283
:10084C0006D04460C2614A680264036230BC7047DF
:10085C0024F480444D6944EA8514F2E7002C0140ED
:10086C0003681B4A90420AD0B0F1804F07D0A2F522
:10087C009432904203D002F58062904203D123F06F
:10088C0070034A681343124A90420AD0B0F1804F69
:10089C0007D0A2F59432904203D002F580629042C8
:1008AC0003D123F44073CA68134323F080034A69CD
:1008BC00134303608B68C3620B688362044B9842DA
:1008CC0002D00123436170470B690363F9E700BF52
:1008DC00002C014040B310B5044690F83D30F3B104
:1008EC00022384F83D30214651F8040BFFF7B8FF82
:1008FC00012384F8463084F83E3084F83F3084F885
:10090C00403084F8413084F8423084F8433084F825
:10091C00443084F8453084F83D30002010BD80F818
:10092C003C30FFF793FEDBE70120704730B4036ADD
:10093C0023F010030362036A4468826922F4E642DE
:10094C000D6842EA052223F020038D6843EA051363
:10095C000E4DA84209D00D4DA8420ED044608261C4
:10096C004A688263036230BC704723F08003CD6811
:10097C0043EA051323F04003EDE724F440644D698A
:10098C0044EA85048D6944EA8504E7E7002C0140BC
:10099C0038B590F83C30012B60D004460D4601234D
:1009AC0080F83C300C2A1AD8DFE802F00719191924
:1009BC001D1919193119191944000068FFF7CCFEDB
:1009CC002268936943F0080393612268936923F0CA
:1009DC00040393612268936929690B439361002096
:1009EC0084F83C0038BD0068FFF7A0FF22689369CB
:1009FC0043F4006393612268936923F480639361E9
:100A0C0022689369296943EA01239361E7E7006847
:100A1C00FFF7D0FE2268D36943F00803D361226844
:100A2C00D36923F00403D3612268D36929690B438A
:100A3C00D361D4E70068FFF7EFFE2268D36943F473
:100A4C000063D3612268D36923F48063D361226885
:100A5C00D369296943EA0123D361C0E70220C1E7C6
:100A6C0090F83C30012B2CD010B4012380F83C3092
:100A7C00022380F83D3003685A689C6822F0700CA1
:100A8C000A6842EA0C025A6003680F4A93420AD081
:100A9C00B3F1804F07D0A2F59432934203D002F504
:100AAC008062934204D124F080044A6814439C6011
:100ABC00012380F83D30002380F83C30184610BCF0
:100ACC0070470220704700BF002C014010B504464F
:100ADC000E4B18784FF47A73B3FBF0F30C4A106892
:100AEC00B0FBF3F000F05EFD68B90F2C01D90120CA
:100AFC000AE0002221464FF0FF3000F00DFD054BBF
:100B0C001C60002000E0012010BD00BF030000208D
:100B1C00080000200400002008B5074A136843F0C1
:100B2C0010031360032000F0E5FC0F20FFF7CEFF4D
:100B3C00FFF76AFD002008BD00200240034A11683F
:100B4C00034B1B780B441360704700BFC801002097
:100B5C0003000020014B1868704700BFC80100203B
:100B6C0038B50446FFF7F6FF0546B4F1FF3F02D057
:100B7C00044B1B781C44FFF7EDFF401BA042FAD33B
:100B8C0038BD00BF0300002082B0084B1B68084A28
:100B9C00A2FB03235B0A00FB03F3019300BF019B41
:100BAC005A1E0192002BF9D102B0704708000020A8
:100BBC00D34D6210002800F0F18170B582B004466C
:100BCC00036813F0010F2CD0994B5B6803F00C03F6
:100BDC00042B1DD0964B5B6803F00C03082B12D032
:100BEC006368B3F5803F41D0002B55D103F18043AE
:100BFC0003F504331A6822F480321A601A6822F45E
:100C0C0080221A6037E08A4B5B6813F4803FE7D090
:100C1C00874B1B6813F4003F03D06368002B00F074
:100C2C00BF81236813F0020F75D0814B5B6813F002
:100C3C000C0F5FD07E4B5B6803F00C03082B54D079
:100C4C002369002B00F08A807A4B01221A60FFF78F
:100C5C0081FF0546764B1B6813F0020F75D1FFF729
:100C6C0079FF401B0228F5D903209EE1704A1368D6
:100C7C0043F480331360636843B3FFF76BFF05469F
:100C8C006B4B1B6813F4003FCBD1FFF763FF401B8A
:100C9C006428F5D9032088E1B3F5A02F09D0644B63
:100CAC001A6822F480321A601A6822F480221A60C0
:100CBC00E1E703F18043A3F53C331A6842F4802248
:100CCC001A601A6842F480321A60D4E7FFF742FFC8
:100CDC000546574B1B6813F4003FA2D0FFF73AFFB1
:100CEC00401B6428F5D903205FE1514B5B6813F47A
:100CFC00803FA5D14E4B1B6813F0020F03D0236924
:100D0C00012B40F04F814A4A136823F0F8036169C4
:100D1C0043EAC1031360236813F0080F33D0A369AF
:100D2C00002B5CD0434B0122C3F88024FFF712FF49
:100D3C0005463F4B5B6A13F0020F21D1FFF70AFF08
:100D4C00401B0228F5D903202FE1394A136823F000
:100D5C00F803616943EAC1031360DCE7354B0022F9
:100D6C001A60FFF7F7FE0546314B1B6813F0020FB4
:100D7C00D1D0FFF7EFFE401B0228F5D9032014E178
:100D8C000120FFF701FF236813F0040F00F0968099
:100D9C00274BDB6913F0805F34D1254BDA6942F0C5
:100DAC008052DA61DB6903F080530193019B0125CA
:100DBC00214B1B6813F4807F26D0E368012B3DD0B8
:100DCC00002B53D103F1804303F504331A6A22F04C
:100DDC0001021A621A6A22F004021A6233E0154BFD
:100DEC000022C3F88024FFF7B5FE0546104B5B6A62
:100DFC0013F0020FC7D0FFF7ADFE401B0228F5D948
:100E0C000320D2E00025D3E70B4A136843F4807328
:100E1C001360FFF79FFE0646074B1B6813F4807F99
:100E2C00CBD1FFF797FE801B6428F5D90320BCE0DB
:100E3C000010024000004242007000405F4A136AFA
:100E4C0043F001031362E36833B3FFF783FE0646F6
:100E5C005A4B1B6A13F0020F2FD1FFF77BFE801B3E
:100E6C0041F288339842F3D903209EE0052B09D038
:100E7C00524B1A6A22F001021A621A6A22F0040218
:100E8C001A62E0E74D4B1A6A42F004021A621A6ABF
:100E9C0042F001021A62D6E7FFF75CFE0646474BAA
:100EAC001B6A13F0020F08D0FFF754FE801B41F2AF
:100EBC0088339842F3D9032077E0E5B9E369002B36
:100ECC0072D03E4A526802F00C02082A56D0022B0D
:100EDC0017D03B4B00221A66FFF73CFE0446374BFB
:100EEC001B6813F0007F47D0FFF734FE001B02286D
:100EFC00F5D9032059E0314AD36923F08053D361EB
:100F0C00DCE72F4B00221A66FFF724FE05462B4B1D
:100F1C001B6813F0007F06D0FFF71CFE401B022855
:100F2C00F5D9032041E0236AB3F5803F1AD0234959
:100F3C004B6823F47413226A606A024313434B60B8
:100F4C001F4B01221A66FFF705FE04461B4B1B685C
:100F5C0013F0007F0ED1FFF7FDFD001B0228F5D921
:100F6C00032022E0154A536823F40033A1680B4395
:100F7C005360DCE7002018E0002016E0012B16D0AF
:100F8C000E4B5B6803F48031226A914211D103F459
:100F9C007013626A93420ED1002006E00120704764
:100FAC00012002E0012000E0002002B070BD012011
:100FBC00FBE70120F9E70120F7E700BF0010024032
:100FCC000000424286B0164B0FCB0DF1180C0CE909
:100FDC000F0040F20123ADF80430124B5B6803F0B4
:100FEC000C02082A02D0104806B07047C3F38342A3
:100FFC00624412F8100C13F4803F0CD0094B5B6860
:10100C00C3F34043634413F8143C074A02FB00F05B
:10101C00B0FBF3F0E8E7054B03FB00F0E4E700BF9F
:10102C00F41C00080010024000127A0000093D0078
:10103C00002800F0A08070B50D460446524B1B688A
:10104C0003F007038B420BD24F4A136823F00703BC
:10105C000B431360136803F007038B4240F08D8041
:10106C00236813F0020F17D013F0040F04D0474A73
:10107C00536843F4E0635360236813F0080F04D003
:10108C00424A536843F460535360404A536823F018
:10109C00F003A1680B435360236813F0010F31D0A8
:1010AC006368012B20D0022B25D0384A126812F02D
:1010BC00020F64D035494A6822F0030213434B6097
:1010CC00FFF748FD0646314B5B6803F00C03626882
:1010DC00B3EB820F16D0FFF73DFD801B41F2883336
:1010EC009842F0D9032045E0284A126812F4003FD8
:1010FC00E0D101203EE0254A126812F0007FD9D1E0
:10110C00012037E0204B1B6803F00703AB420AD9E0
:10111C001D4A136823F007032B431360136803F075
:10112C000703AB422DD1236813F0040F06D0174AE6
:10113C00536823F4E063E1680B435360236813F0B6
:10114C00080F07D0114A536823F46053216943EA0E
:10115C00C1035360FFF736FF0C4B5B68C3F30313FB
:10116C000B4AD35CD8400B4B18600B4B1868FFF73D
:10117C00ADFC002070BD012070470120FAE7012072
:10118C00F8E70120F6E700BF002002400010024003
:10119C00081D00080800002004000020014B1868FE
:1011AC00704700BF0800002008B5FFF7F7FF044B9D
:1011BC005B68C3F30223034AD35CD84008BD00BF6D
:1011CC0000100240181D000808B5FFF7E7FF044B9C
:1011DC005B68C3F3C223034AD35CD84008BD00BF8D
:1011EC0000100240181D000870B582B00024A446FF
:1011FC00A6E0804DAA4210D007D97F4DAA420CD050
:10120C0005F58035AA4208D013E0A5F58015AA4251
:10121C0003D005F57025AA4207D18A68002A58D058
:10122C00012A51D04361082403E0A5F58015AA4298
:10123C00F3D0BEF1FF0F4ED80646BEF1FF0F4CD8CF
:10124C004FEA8C0233680F25954023EA050304FA14
:10125C0002F2134333604B6813F0805F6ED0674B20
:10126C009A6942F001029A619B6903F001030193B0
:10127C00019B4FEA9C02951C614B53F825600CF0C6
:10128C0003039D000F23AB4026EA03065D4B9842F7
:10129C0029D003F58063984200F08E8003F58063BB
:1012AC00984200F08B8003F58063984219D0042398
:1012BC001AE0CC68BDE7CC680434BAE7CC680834D3
:1012CC00B7E7CC680C34B4E703610824B1E7002419
:1012DC00AFE70424ADE7061DAFE7ACF108029200BE
:1012EC00B0E7032300E00023AB4033430232444D0C
:1012FC0045F822304B6813F4803F61D0424A1368A2
:10130C0043EA0E0313604B6813F4003F5ED03E4A71
:10131C00536843EA0E0353604B6813F4801F5BD091
:10132C00394A936843EA0E0393604B6813F4001F29
:10133C0058D0354AD36843EA0E03D3600CF1010C44
:10134C000A6832FA0CF353D0012303FA0CF302EAC5
:10135C00030E33EA0202F1D14A68122A3FF649AF72
:10136C00122A3FF666AF01A555F822F027120008A5
:10137C00BF120008C9120008DB1200083F12000857
:10138C003F1200083F1200083F1200083F120008ED
:10139C003F1200083F1200083F1200083F120008DD
:1013AC003F1200083F1200083F1200083F120008CD
:1013BC00C3120008CF120008012395E7022393E71C
:1013CC00114A136823EA0E0313609CE70E4A536814
:1013DC0023EA0E0353609FE70B4A936823EA0E033C
:1013EC009360A2E7084AD36823EA0E03D360A5E70B
:1013FC0002B070BD0000221000003110001002403D
:10140C000000014000080140000401400AB10161E4
:10141C00704709040161704790F82130022B06D007
:10142C0004238363002380F8203001207047026876
:10143C00136823F00E0313600268136823F0010392
:10144C001360036CC16B012202FA03F34B6080F84A
:10145C002120002380F820301846704708B590F8FA
:10146C002130022B03D004238363012008BD0268C2
:10147C00136823F00E0313600268136823F0010352
:10148C0013600368194A934214D0143293421FD04C
:10149C00143293421ED0143293421ED01432934213
:1014AC001ED01432934202D04FF0807203E04FF4FE
:1014BC00801200E001220E4B5A60012380F821308B
:1014CC00002380F82030436B6BB198470020CDE7A8
:1014DC001022F0E74FF48072EDE74FF48052EAE708
:1014EC004FF48032E7E70020C0E700BF080002405D
:1014FC0000000240074AD36823F4E0631B041B0C72
:10150C00000200F4E060034343F0BF6343F4003394
:10151C00D360704700ED00E000B5194BDB68C3F3F6
:10152C000223C3F1070CBCF1040F28BF4FF0040CCD
:10153C0003F1040EBEF1060F18D9033B4FF0FF3E2A
:10154C000EFA0CFC21EA0C0199400EFA03F322EA84
:10155C000303194300280BDB0901C9B200F16040F9
:10156C0000F5614080F800135DF804FB0023E5E70B
:10157C0000F00F000901C9B2024B1954F4E700BF87
:10158C0000ED00E014ED00E0002807DB00F01F0286
:10159C00400901239340024A42F82030704700BFB3
:1015AC0000E100E00138B0F1807F0BD24FF0E02376
:1015BC005861054AF02182F8231000209861072217
:1015CC001A6170470120704700ED00E07047026817
:1015DC00D36823F49073D3600268536923F001033A
:1015EC005361036B012B05D0202380F83E30002380
:1015FC00036370470268D36823F01003D360F3E7EA
:10160C0090F83D30DBB2212B01D00220704783686B
:10161C00B3F5805F17D0036A5A1C02621A7803680C
:10162C005A60C38C9BB2013B9BB2C3844BB902681A
:10163C00D36823F08003D3600268D36843F040037F
:10164C00D360002070470369002BE4D1036A1B8828
:10165C000268C3F308035360036A02330362E0E7D2
:10166C0010B504460268136923F44053C1680B4358
:10167C00136183680269134342691A430168CB689A
:10168C0023F4B05323F00C031343CB60026853696B
:10169C0023F4407381690B4353610268134B9A42E4
:1016AC0020D0FFF781FD024602EB820202EB8202A0
:1016BC0063689B00B2FBF3F20D48A0FB02314909B1
:1016CC00642303FB11231B013233A0FB03235B09AF
:1016DC0003F0F00202EB011203F00F032168134434
:1016EC008B6010BDFFF770FD0246DDE7003801404E
:1016FC001F85EB512DE9F84305460F4616469946D2
:10170C00DDF820802C68246837EA04030CBF4FF006
:10171C00010C4FF0000CB4451FD1B8F1FF3FF1D0D4
:10172C00B8F1000F05D0FFF715FAA0EB0900404502
:10173C00E8D92A68D36823F4D073D3602A68536934
:10174C0023F001035361202385F83D3085F83E30AA
:10175C00002385F83C30032000E00020BDE8F8832E
:10176C0058B310B5044690F83D300BB3242384F8DD
:10177C003D302268D36823F40053D3602046FFF732
:10178C006FFF2268136923F4904313612268536935
:10179C0023F02A0353612268D36843F40053D360C7
:1017AC0000202064202384F83D3084F83E3010BDA6
:1017BC0080F83C30FEF784FFD8E7012070472DE914
:1017CC00F04182B01E4690F83D30DBB2202B54D154
:1017DC0004460D469046002953D0002A53D090F869
:1017EC003C30012B51D0012380F83C3000230364A2
:1017FC00212380F83D30FFF7ADF90746A4F824808B
:10180C00A4F82680A368B3F5805F05D04FF00008DC
:10181C00002384F83C3012E0236913B14FF0000828
:10182C00F6E7A8460025F3E738F8023B2268C3F335
:10183C0008035360E28C92B2013A92B2E284E38CD8
:10184C009BB273B100963B46002280212046FFF7E5
:10185C0051FFE0B9002DE7D015F8012B23685A6031
:10186C00E8E700963B46002240212046FFF742FF66
:10187C0078B9202384F83D3000E0022002B0BDE8A6
:10188C00F0810120FAE70120F8E70220F6E70320B7
:10189C00F4E70320F2E72DE9F04182B01E4690F800
:1018AC003E30DBB2202B5CD104460D46904600291D
:1018BC005BD0002A5BD090F83C30012B59D001232F
:1018CC0080F83C3000230364222280F83E2003631E
:1018DC00FFF740F90746A4F82C80A4F82E80A368E3
:1018EC00B3F5805F05D04FF00008002384F83C303E
:1018FC0017E0236913B14FF00008F6E7A84600255E
:10190C00F3E723685B68C3F3080328F8023B03E0A2
:10191C0023685B682B700135E28D92B2013A92B26A
:10192C00E285E38D9BB2BBB100963B4600222021A1
:10193C002046FFF7DFFEF0B9002DE2D0A368B3F527
:10194C00805FE5D013B92369002BE1D023685B6875
:10195C0003F07F032B70DEE7202384F83E30002059
:10196C0000E0022002B0BDE8F0810120FAE701207E
:10197C00F8E70220F6E70320F4E7704708B50168A2
:10198C00CA6822F04002CA60202280F83D20FFF78E
:10199C00F4FF002008BD7047704708B5406A00236B
:1019AC00C385C384FFF7F8FF08BD704790F83E303D
:1019BC00DBB2222B60D18368B3F5805F46D0826A9C
:1019CC00B3F5805F04D0002B4DD10369002B4AD1B5
:1019DC0003685B681370836A01338362C38D9BB2A7
:1019EC00013B9BB2C385002B48D100B583B0026884
:1019FC00D36823F02003D3600268D36823F4807388
:101A0C00D3600268536923F001035361202380F8EB
:101A1C003E30036B012B2CD1002303630268D36887
:101A2C0023F01003D36003681A6812F0100F06D06D
:101A3C00002201921A6801925B680193019B818DCF
:101A4C00FFF7B3FF002003B05DF804FB0269002A26
:101A5C00B5D1826A03685B68C3F308031380836A99
:101A6C0002338362BAE703685B6803F07F03137089
:101A7C00B1E7FFF790FFE5E70220704700207047C1
:101A8C0030B583B0044602681368D068516913F00E
:101A9C000F0505D113F0200F02D010F0200F19D133
:101AAC002DB111F0010119D110F4907F16D1216BD9
:101ABC00012975D013F0800F03D010F0800F40F087
:101ACC00D78013F0400F03D010F0400F40F0D480BB
:101ADC0003B030BD2046FFF769FFF9E713F0010FA3
:101AEC0006D010F4807F03D0226C42F001022264F5
:101AFC0013F0040F04D019B1226C42F002022264DC
:101B0C0013F0020F04D019B1226C42F004022264CB
:101B1C0013F0080F07D010F0200F00D119B1226C70
:101B2C0042F008022264226C002AD1D013F0200F5C
:101B3C0002D010F0200F21D123685B6903F0400321
:101B4C00226C12F0080F00D123B32046FFF73FFDA3
:101B5C0023685A6912F0400F18D05A6922F04002DB
:101B6C005A61A36B73B1464A5A63A06BFFF776FCBC
:101B7C000028ADD0A06B436B9847A9E72046FFF730
:101B8C0015FFD9E72046FFF707FFA1E72046FFF72F
:101B9C0003FF9DE72046FFF7FFFE0023236497E732
:101BAC0013F0100F86D010F0100F83D00023019388
:101BBC001368019353680193019B536913F0400F11
:101BCC0032D0A16B0B685B689BB2002B80D0A08DD0
:101BDC0098427FF67DAFE3858B69202B08D1A18DD0
:101BEC00E38D9BB2C91A89B22046FFF7DEFE6FE780
:101BFC00D36823F48073D3602268536923F0010304
:101C0C0053612268536923F040035361202384F805
:101C1C003E30002323632268D36823F01003D36083
:101C2C00A06BFFF7F9FBDAE7A18DE38D9BB2C91A24
:101C3C0089B2E38D9BB2002B3FF44AAF00293FF4ED
:101C4C0047AFD36823F49073D3602268536923F0B1
:101C5C0001035361202384F83E3000232363226860
:101C6C00D36823F01003D3602046FFF79EFE2FE7C6
:101C7C002046FFF7C5FC2BE72046FFF77FFE27E742
:101C8C00A71900080C480D490D4A002302E0D4584E
:101C9C00C4500433C4188C42F9D30A4A0A4C0023AA
:101CAC0001E013600432A242FBD3FFF78FFCFEF776
:101CBC0027FAFEF76BFC7047000000200C00002098
:101CCC00281D00080C000020CC010020FEE70000BD
:101CDC00F8B500BFF8BC08BC9E467047F8B500BF0D
:081CEC00F8BC08BC9E467047DD
:101CF40002030405060708090A0B0C0D0E0F101049
:101D040000000000000000000000000001020304C5
:0C1D14000607080900000000010203049B
:041D2000190200089C
:041D2400F5010008BD
:0C1D2800616E7301100000000024F40044
:0400000508001C9142
:00000001FF
